{
  "contractName": "EtherTransfer",
  "abi": [
    {
      "anonymous": false,
      "inputs": [
        {
          "indexed": true,
          "internalType": "address",
          "name": "sender",
          "type": "address"
        },
        {
          "indexed": true,
          "internalType": "address",
          "name": "recipient",
          "type": "address"
        },
        {
          "indexed": false,
          "internalType": "uint256",
          "name": "amount",
          "type": "uint256"
        }
      ],
      "name": "EtherSent",
      "type": "event"
    },
    {
      "stateMutability": "payable",
      "type": "receive"
    },
    {
      "inputs": [
        {
          "internalType": "address payable",
          "name": "recipient",
          "type": "address"
        }
      ],
      "name": "sendEther",
      "outputs": [],
      "stateMutability": "payable",
      "type": "function"
    },
    {
      "inputs": [],
      "name": "getBalance",
      "outputs": [
        {
          "internalType": "uint256",
          "name": "",
          "type": "uint256"
        }
      ],
      "stateMutability": "view",
      "type": "function"
    }
  ],
  "bytecode": "0x6080604052348015600f57600080fd5b506101f88061001f6000396000f3fe60806040526004361061002d5760003560e01c806312065fe01461003957806348c981e21461005957600080fd5b3661003457005b600080fd5b34801561004557600080fd5b504760405190815260200160405180910390f35b61006c610067366004610192565b61006e565b005b600034116100c35760405162461bcd60e51b815260206004820152601960248201527f4d7573742073656e64206d6f7265207468616e2030204554480000000000000060448201526064015b60405180910390fd5b6001600160a01b0381166101195760405162461bcd60e51b815260206004820152601960248201527f496e76616c696420726563697069656e7420616464726573730000000000000060448201526064016100ba565b6040516001600160a01b038216903480156108fc02916000818181858888f1935050505015801561014e573d6000803e3d6000fd5b506040513481526001600160a01b0382169033907f10d1a5dc650a65cd6625a330078a13ee62c6ec85b36e94bdf57e4d3188ca67389060200160405180910390a350565b6000602082840312156101a457600080fd5b81356001600160a01b03811681146101bb57600080fd5b939250505056fea2646970667358221220c8697753cfad004f15de320101e0a595b915b38a20cc158d7fe1d5c24891d70264736f6c634300081c0033",
  "immutableReferences": {},
  "source": "// SPDX-License-Identifier:UNLICENSED\r\n\r\npragma solidity ^0.8.28;\r\n\r\ncontract EtherTransfer {\r\n    event EtherSent(\r\n        address indexed sender,\r\n        address indexed recipient,\r\n        uint256 amount\r\n    );\r\n\r\n    receive() external payable {}\r\n\r\n    function sendEther(address payable recipient) public payable {\r\n        require(msg.value > 0, \"Must send more than 0 ETH\");\r\n        require(recipient != address(0), \"Invalid recipient address\");\r\n\r\n        recipient.transfer(msg.value);\r\n\r\n        emit EtherSent(msg.sender, recipient, msg.value);\r\n    }\r\n\r\n    function getBalance() public view returns (uint256) {\r\n        return address(this).balance;\r\n    }\r\n}\r\n",
  "sourcePath": "C:\\Users\\pc\\Desktop\\minor project\\truffy-crypto-dapp\\contracts\\EtherTransfer.sol",
  "compiler": {
    "name": "solc",
    "version": "0.8.28+commit.7893614a.Emscripten.clang"
  },
  "schemaVersion": "3.4.16",
  "updatedAt": "2024-11-21T07:45:53.117Z",
  "devdoc": {
    "kind": "dev",
    "methods": {},
    "version": 1
  },
  "userdoc": {
    "kind": "user",
    "methods": {},
    "version": 1
  }
}