{
  "contractName": "MyNFT",
  "abi": [
    {
      "inputs": [],
      "stateMutability": "nonpayable",
      "type": "constructor"
    },
    {
      "inputs": [],
      "name": "ERC721EnumerableForbiddenBatchMint",
      "type": "error"
    },
    {
      "inputs": [
        {
          "internalType": "address",
          "name": "sender",
          "type": "address"
        },
        {
          "internalType": "uint256",
          "name": "tokenId",
          "type": "uint256"
        },
        {
          "internalType": "address",
          "name": "owner",
          "type": "address"
        }
      ],
      "name": "ERC721IncorrectOwner",
      "type": "error"
    },
    {
      "inputs": [
        {
          "internalType": "address",
          "name": "operator",
          "type": "address"
        },
        {
          "internalType": "uint256",
          "name": "tokenId",
          "type": "uint256"
        }
      ],
      "name": "ERC721InsufficientApproval",
      "type": "error"
    },
    {
      "inputs": [
        {
          "internalType": "address",
          "name": "approver",
          "type": "address"
        }
      ],
      "name": "ERC721InvalidApprover",
      "type": "error"
    },
    {
      "inputs": [
        {
          "internalType": "address",
          "name": "operator",
          "type": "address"
        }
      ],
      "name": "ERC721InvalidOperator",
      "type": "error"
    },
    {
      "inputs": [
        {
          "internalType": "address",
          "name": "owner",
          "type": "address"
        }
      ],
      "name": "ERC721InvalidOwner",
      "type": "error"
    },
    {
      "inputs": [
        {
          "internalType": "address",
          "name": "receiver",
          "type": "address"
        }
      ],
      "name": "ERC721InvalidReceiver",
      "type": "error"
    },
    {
      "inputs": [
        {
          "internalType": "address",
          "name": "sender",
          "type": "address"
        }
      ],
      "name": "ERC721InvalidSender",
      "type": "error"
    },
    {
      "inputs": [
        {
          "internalType": "uint256",
          "name": "tokenId",
          "type": "uint256"
        }
      ],
      "name": "ERC721NonexistentToken",
      "type": "error"
    },
    {
      "inputs": [
        {
          "internalType": "address",
          "name": "owner",
          "type": "address"
        },
        {
          "internalType": "uint256",
          "name": "index",
          "type": "uint256"
        }
      ],
      "name": "ERC721OutOfBoundsIndex",
      "type": "error"
    },
    {
      "anonymous": false,
      "inputs": [
        {
          "indexed": true,
          "internalType": "address",
          "name": "owner",
          "type": "address"
        },
        {
          "indexed": true,
          "internalType": "address",
          "name": "approved",
          "type": "address"
        },
        {
          "indexed": true,
          "internalType": "uint256",
          "name": "tokenId",
          "type": "uint256"
        }
      ],
      "name": "Approval",
      "type": "event"
    },
    {
      "anonymous": false,
      "inputs": [
        {
          "indexed": true,
          "internalType": "address",
          "name": "owner",
          "type": "address"
        },
        {
          "indexed": true,
          "internalType": "address",
          "name": "operator",
          "type": "address"
        },
        {
          "indexed": false,
          "internalType": "bool",
          "name": "approved",
          "type": "bool"
        }
      ],
      "name": "ApprovalForAll",
      "type": "event"
    },
    {
      "anonymous": false,
      "inputs": [
        {
          "indexed": true,
          "internalType": "address",
          "name": "from",
          "type": "address"
        },
        {
          "indexed": true,
          "internalType": "address",
          "name": "to",
          "type": "address"
        },
        {
          "indexed": true,
          "internalType": "uint256",
          "name": "tokenId",
          "type": "uint256"
        }
      ],
      "name": "Transfer",
      "type": "event"
    },
    {
      "inputs": [],
      "name": "admin",
      "outputs": [
        {
          "internalType": "address",
          "name": "",
          "type": "address"
        }
      ],
      "stateMutability": "view",
      "type": "function"
    },
    {
      "inputs": [
        {
          "internalType": "address",
          "name": "to",
          "type": "address"
        },
        {
          "internalType": "uint256",
          "name": "tokenId",
          "type": "uint256"
        }
      ],
      "name": "approve",
      "outputs": [],
      "stateMutability": "nonpayable",
      "type": "function"
    },
    {
      "inputs": [
        {
          "internalType": "address",
          "name": "owner",
          "type": "address"
        }
      ],
      "name": "balanceOf",
      "outputs": [
        {
          "internalType": "uint256",
          "name": "",
          "type": "uint256"
        }
      ],
      "stateMutability": "view",
      "type": "function"
    },
    {
      "inputs": [
        {
          "internalType": "uint256",
          "name": "tokenId",
          "type": "uint256"
        }
      ],
      "name": "getApproved",
      "outputs": [
        {
          "internalType": "address",
          "name": "",
          "type": "address"
        }
      ],
      "stateMutability": "view",
      "type": "function"
    },
    {
      "inputs": [
        {
          "internalType": "address",
          "name": "owner",
          "type": "address"
        },
        {
          "internalType": "address",
          "name": "operator",
          "type": "address"
        }
      ],
      "name": "isApprovedForAll",
      "outputs": [
        {
          "internalType": "bool",
          "name": "",
          "type": "bool"
        }
      ],
      "stateMutability": "view",
      "type": "function"
    },
    {
      "inputs": [],
      "name": "name",
      "outputs": [
        {
          "internalType": "string",
          "name": "",
          "type": "string"
        }
      ],
      "stateMutability": "view",
      "type": "function"
    },
    {
      "inputs": [],
      "name": "nextTokenId",
      "outputs": [
        {
          "internalType": "uint256",
          "name": "",
          "type": "uint256"
        }
      ],
      "stateMutability": "view",
      "type": "function"
    },
    {
      "inputs": [
        {
          "internalType": "uint256",
          "name": "tokenId",
          "type": "uint256"
        }
      ],
      "name": "ownerOf",
      "outputs": [
        {
          "internalType": "address",
          "name": "",
          "type": "address"
        }
      ],
      "stateMutability": "view",
      "type": "function"
    },
    {
      "inputs": [
        {
          "internalType": "address",
          "name": "from",
          "type": "address"
        },
        {
          "internalType": "address",
          "name": "to",
          "type": "address"
        },
        {
          "internalType": "uint256",
          "name": "tokenId",
          "type": "uint256"
        }
      ],
      "name": "safeTransferFrom",
      "outputs": [],
      "stateMutability": "nonpayable",
      "type": "function"
    },
    {
      "inputs": [
        {
          "internalType": "address",
          "name": "from",
          "type": "address"
        },
        {
          "internalType": "address",
          "name": "to",
          "type": "address"
        },
        {
          "internalType": "uint256",
          "name": "tokenId",
          "type": "uint256"
        },
        {
          "internalType": "bytes",
          "name": "data",
          "type": "bytes"
        }
      ],
      "name": "safeTransferFrom",
      "outputs": [],
      "stateMutability": "nonpayable",
      "type": "function"
    },
    {
      "inputs": [
        {
          "internalType": "address",
          "name": "operator",
          "type": "address"
        },
        {
          "internalType": "bool",
          "name": "approved",
          "type": "bool"
        }
      ],
      "name": "setApprovalForAll",
      "outputs": [],
      "stateMutability": "nonpayable",
      "type": "function"
    },
    {
      "inputs": [
        {
          "internalType": "bytes4",
          "name": "interfaceId",
          "type": "bytes4"
        }
      ],
      "name": "supportsInterface",
      "outputs": [
        {
          "internalType": "bool",
          "name": "",
          "type": "bool"
        }
      ],
      "stateMutability": "view",
      "type": "function"
    },
    {
      "inputs": [],
      "name": "symbol",
      "outputs": [
        {
          "internalType": "string",
          "name": "",
          "type": "string"
        }
      ],
      "stateMutability": "view",
      "type": "function"
    },
    {
      "inputs": [
        {
          "internalType": "uint256",
          "name": "index",
          "type": "uint256"
        }
      ],
      "name": "tokenByIndex",
      "outputs": [
        {
          "internalType": "uint256",
          "name": "",
          "type": "uint256"
        }
      ],
      "stateMutability": "view",
      "type": "function"
    },
    {
      "inputs": [
        {
          "internalType": "address",
          "name": "owner",
          "type": "address"
        },
        {
          "internalType": "uint256",
          "name": "index",
          "type": "uint256"
        }
      ],
      "name": "tokenOfOwnerByIndex",
      "outputs": [
        {
          "internalType": "uint256",
          "name": "",
          "type": "uint256"
        }
      ],
      "stateMutability": "view",
      "type": "function"
    },
    {
      "inputs": [],
      "name": "totalSupply",
      "outputs": [
        {
          "internalType": "uint256",
          "name": "",
          "type": "uint256"
        }
      ],
      "stateMutability": "view",
      "type": "function"
    },
    {
      "inputs": [
        {
          "internalType": "address",
          "name": "from",
          "type": "address"
        },
        {
          "internalType": "address",
          "name": "to",
          "type": "address"
        },
        {
          "internalType": "uint256",
          "name": "tokenId",
          "type": "uint256"
        }
      ],
      "name": "transferFrom",
      "outputs": [],
      "stateMutability": "nonpayable",
      "type": "function"
    },
    {
      "inputs": [
        {
          "internalType": "address",
          "name": "to",
          "type": "address"
        },
        {
          "internalType": "string",
          "name": "nftURi",
          "type": "string"
        }
      ],
      "name": "safeMint",
      "outputs": [],
      "stateMutability": "nonpayable",
      "type": "function"
    },
    {
      "inputs": [
        {
          "internalType": "uint256",
          "name": "tokenId",
          "type": "uint256"
        }
      ],
      "name": "tokenURI",
      "outputs": [
        {
          "internalType": "string",
          "name": "",
          "type": "string"
        }
      ],
      "stateMutability": "view",
      "type": "function"
    }
  ],
  "bytecode": "0x608060405234801561001057600080fd5b5060405180604001604052806005815260200164135e53919560da1b815250604051806040016040528060048152602001631353919560e21b815250816000908161005b9190610121565b5060016100688282610121565b5050600b80546001600160a01b03191633179055506101df565b634e487b7160e01b600052604160045260246000fd5b600181811c908216806100ac57607f821691505b6020821081036100cc57634e487b7160e01b600052602260045260246000fd5b50919050565b601f82111561011c57806000526020600020601f840160051c810160208510156100f95750805b601f840160051c820191505b818110156101195760008155600101610105565b50505b505050565b81516001600160401b0381111561013a5761013a610082565b61014e816101488454610098565b846100d2565b6020601f821160018114610182576000831561016a5750848201515b600019600385901b1c1916600184901b178455610119565b600084815260208120601f198516915b828110156101b25787850151825560209485019460019092019101610192565b50848210156101d05786840151600019600387901b60f8161c191681555b50505050600190811b01905550565b611425806101ee6000396000f3fe608060405234801561001057600080fd5b50600436106101215760003560e01c80636352211e116100ad578063b88d4fde11610071578063b88d4fde1461024b578063c87b56dd1461025e578063d204c45e14610271578063e985e9c514610284578063f851a4401461029757600080fd5b80636352211e1461020157806370a082311461021457806375794a3c1461022757806395d89b4114610230578063a22cb4651461023857600080fd5b806318160ddd116100f457806318160ddd146101a357806323b872dd146101b55780632f745c59146101c857806342842e0e146101db5780634f6ccce7146101ee57600080fd5b806301ffc9a71461012657806306fdde031461014e578063081812fc14610163578063095ea7b31461018e575b600080fd5b610139610134366004610ed6565b6102aa565b60405190151581526020015b60405180910390f35b6101566102d5565b6040516101459190610f40565b610176610171366004610f53565b610367565b6040516001600160a01b039091168152602001610145565b6101a161019c366004610f88565b610390565b005b6008545b604051908152602001610145565b6101a16101c3366004610fb2565b61039f565b6101a76101d6366004610f88565b61042f565b6101a16101e9366004610fb2565b610494565b6101a76101fc366004610f53565b6104b4565b61017661020f366004610f53565b61050d565b6101a7610222366004610fef565b610518565b6101a7600a5481565b610156610560565b6101a161024636600461100a565b61056f565b6101a16102593660046110d6565b61057a565b61015661026c366004610f53565b610592565b6101a161027f366004611152565b610634565b6101396102923660046111b4565b610665565b600b54610176906001600160a01b031681565b60006001600160e01b0319821663780e9d6360e01b14806102cf57506102cf82610693565b92915050565b6060600080546102e4906111e7565b80601f0160208091040260200160405190810160405280929190818152602001828054610310906111e7565b801561035d5780601f106103325761010080835404028352916020019161035d565b820191906000526020600020905b81548152906001019060200180831161034057829003601f168201915b5050505050905090565b6000610372826106e3565b506000828152600460205260409020546001600160a01b03166102cf565b61039b82823361071c565b5050565b6001600160a01b0382166103ce57604051633250574960e11b8152600060048201526024015b60405180910390fd5b60006103db838333610729565b9050836001600160a01b0316816001600160a01b031614610429576040516364283d7b60e01b81526001600160a01b03808616600483015260248201849052821660448201526064016103c5565b50505050565b600061043a83610518565b821061046b5760405163295f44f760e21b81526001600160a01b0384166004820152602481018390526044016103c5565b506001600160a01b03919091166000908152600660209081526040808320938352929052205490565b6104af8383836040518060200160405280600081525061057a565b505050565b60006104bf60085490565b82106104e85760405163295f44f760e21b815260006004820152602481018390526044016103c5565b600882815481106104fb576104fb611221565b90600052602060002001549050919050565b60006102cf826106e3565b60006001600160a01b038216610544576040516322718ad960e21b8152600060048201526024016103c5565b506001600160a01b031660009081526003602052604090205490565b6060600180546102e4906111e7565b61039b3383836107fe565b61058584848461039f565b610429338585858561089d565b6000818152600c602052604090208054606091906105af906111e7565b80601f01602080910402602001604051908101604052809291908181526020018280546105db906111e7565b80156106285780601f106105fd57610100808354040283529160200191610628565b820191906000526020600020905b81548152906001019060200180831161060b57829003601f168201915b50505050509050919050565b600a5461064183826109c8565b61064b81836109e2565b600a805490600061065b8361124d565b9190505550505050565b6001600160a01b03918216600090815260056020908152604080832093909416825291909152205460ff1690565b60006001600160e01b031982166380ac58cd60e01b14806106c457506001600160e01b03198216635b5e139f60e01b145b806102cf57506301ffc9a760e01b6001600160e01b03198316146102cf565b6000818152600260205260408120546001600160a01b0316806102cf57604051637e27328960e01b8152600481018490526024016103c5565b6104af83838360016109fa565b600080610737858585610b00565b90506001600160a01b0381166107945761078f84600880546000838152600960205260408120829055600182018355919091527ff3f7a9fe364faab93b216da50a3214154f22a0a2b415b23a84c8169e8b636ee30155565b6107b7565b846001600160a01b0316816001600160a01b0316146107b7576107b78185610bf9565b6001600160a01b0385166107d3576107ce84610c7a565b6107f6565b846001600160a01b0316816001600160a01b0316146107f6576107f68585610d29565b949350505050565b6001600160a01b03821661083057604051630b61174360e31b81526001600160a01b03831660048201526024016103c5565b6001600160a01b03838116600081815260056020908152604080832094871680845294825291829020805460ff191686151590811790915591519182527f17307eab39ab6107e8899845ad3d59bd9653f200f220920489ca2b5937696c31910160405180910390a3505050565b6001600160a01b0383163b156109c157604051630a85bd0160e11b81526001600160a01b0384169063150b7a02906108df908890889087908790600401611266565b6020604051808303816000875af192505050801561091a575060408051601f3d908101601f19168201909252610917918101906112a3565b60015b610983573d808015610948576040519150601f19603f3d011682016040523d82523d6000602084013e61094d565b606091505b50805160000361097b57604051633250574960e11b81526001600160a01b03851660048201526024016103c5565b805181602001fd5b6001600160e01b03198116630a85bd0160e11b146109bf57604051633250574960e11b81526001600160a01b03851660048201526024016103c5565b505b5050505050565b61039b828260405180602001604052806000815250610d79565b6000828152600c602052604090206104af8282611307565b8080610a0e57506001600160a01b03821615155b15610ad0576000610a1e846106e3565b90506001600160a01b03831615801590610a4a5750826001600160a01b0316816001600160a01b031614155b8015610a5d5750610a5b8184610665565b155b15610a865760405163a9fbf51f60e01b81526001600160a01b03841660048201526024016103c5565b8115610ace5783856001600160a01b0316826001600160a01b03167f8c5be1e5ebec7d5bd14f71427d1e84f3dd0314c0f7b2291e5b200ac8c7c3b92560405160405180910390a45b505b5050600090815260046020526040902080546001600160a01b0319166001600160a01b0392909216919091179055565b6000828152600260205260408120546001600160a01b0390811690831615610b2d57610b2d818486610d91565b6001600160a01b03811615610b6b57610b4a6000856000806109fa565b6001600160a01b038116600090815260036020526040902080546000190190555b6001600160a01b03851615610b9a576001600160a01b0385166000908152600360205260409020805460010190555b60008481526002602052604080822080546001600160a01b0319166001600160a01b0389811691821790925591518793918516917fddf252ad1be2c89b69c2b068fc378daa952ba7f163c4a11628f55a4df523b3ef91a4949350505050565b6000610c0483610518565b6000838152600760209081526040808320546001600160a01b0388168452600690925290912091925090818314610c5b57600083815260208281526040808320548584528184208190558352600790915290208290555b6000938452600760209081526040808620869055938552525081205550565b600854600090610c8c906001906113c6565b60008381526009602052604081205460088054939450909284908110610cb457610cb4611221565b906000526020600020015490508060088381548110610cd557610cd5611221565b6000918252602080832090910192909255828152600990915260408082208490558582528120556008805480610d0d57610d0d6113d9565b6001900381819060005260206000200160009055905550505050565b60006001610d3684610518565b610d4091906113c6565b6001600160a01b039093166000908152600660209081526040808320868452825280832085905593825260079052919091209190915550565b610d838383610df5565b6104af33600085858561089d565b610d9c838383610e5a565b6104af576001600160a01b038316610dca57604051637e27328960e01b8152600481018290526024016103c5565b60405163177e802f60e01b81526001600160a01b0383166004820152602481018290526044016103c5565b6001600160a01b038216610e1f57604051633250574960e11b8152600060048201526024016103c5565b6000610e2d83836000610729565b90506001600160a01b038116156104af576040516339e3563760e11b8152600060048201526024016103c5565b60006001600160a01b038316158015906107f65750826001600160a01b0316846001600160a01b03161480610e945750610e948484610665565b806107f65750506000908152600460205260409020546001600160a01b03908116911614919050565b6001600160e01b031981168114610ed357600080fd5b50565b600060208284031215610ee857600080fd5b8135610ef381610ebd565b9392505050565b6000815180845260005b81811015610f2057602081850181015186830182015201610f04565b506000602082860101526020601f19601f83011685010191505092915050565b602081526000610ef36020830184610efa565b600060208284031215610f6557600080fd5b5035919050565b80356001600160a01b0381168114610f8357600080fd5b919050565b60008060408385031215610f9b57600080fd5b610fa483610f6c565b946020939093013593505050565b600080600060608486031215610fc757600080fd5b610fd084610f6c565b9250610fde60208501610f6c565b929592945050506040919091013590565b60006020828403121561100157600080fd5b610ef382610f6c565b6000806040838503121561101d57600080fd5b61102683610f6c565b91506020830135801515811461103b57600080fd5b809150509250929050565b634e487b7160e01b600052604160045260246000fd5b60008067ffffffffffffffff84111561107757611077611046565b50604051601f19601f85018116603f0116810181811067ffffffffffffffff821117156110a6576110a6611046565b6040528381529050808284018510156110be57600080fd5b83836020830137600060208583010152509392505050565b600080600080608085870312156110ec57600080fd5b6110f585610f6c565b935061110360208601610f6c565b925060408501359150606085013567ffffffffffffffff81111561112657600080fd5b8501601f8101871361113757600080fd5b6111468782356020840161105c565b91505092959194509250565b6000806040838503121561116557600080fd5b61116e83610f6c565b9150602083013567ffffffffffffffff81111561118a57600080fd5b8301601f8101851361119b57600080fd5b6111aa8582356020840161105c565b9150509250929050565b600080604083850312156111c757600080fd5b6111d083610f6c565b91506111de60208401610f6c565b90509250929050565b600181811c908216806111fb57607f821691505b60208210810361121b57634e487b7160e01b600052602260045260246000fd5b50919050565b634e487b7160e01b600052603260045260246000fd5b634e487b7160e01b600052601160045260246000fd5b60006001820161125f5761125f611237565b5060010190565b6001600160a01b038581168252841660208201526040810183905260806060820181905260009061129990830184610efa565b9695505050505050565b6000602082840312156112b557600080fd5b8151610ef381610ebd565b601f8211156104af57806000526020600020601f840160051c810160208510156112e75750805b601f840160051c820191505b818110156109c157600081556001016112f3565b815167ffffffffffffffff81111561132157611321611046565b6113358161132f84546111e7565b846112c0565b6020601f82116001811461136957600083156113515750848201515b600019600385901b1c1916600184901b1784556109c1565b600084815260208120601f198516915b828110156113995787850151825560209485019460019092019101611379565b50848210156113b75786840151600019600387901b60f8161c191681555b50505050600190811b01905550565b818103818111156102cf576102cf611237565b634e487b7160e01b600052603160045260246000fdfea26469706673582212205bb77f2a57d2f4adbd2410ccb0afa5bbbb74e50059b811841217e182b1d162bb64736f6c634300081c0033",
  "immutableReferences": {},
  "source": "// SPDX-License-Identifier: MIT\r\npragma solidity ^0.8.0;\r\n\r\nimport \"@openzeppelin/contracts/token/ERC721/ERC721.sol\";\r\nimport \"@openzeppelin/contracts/token/ERC721/extensions/ERC721Enumerable.sol\";\r\nimport \"@openzeppelin/contracts/access/Ownable.sol\"; // Optional: Ownable for onlyOwner functions\r\n\r\ncontract MyNFT is ERC721Enumerable {\r\n    uint public nextTokenId;\r\n    address public admin;\r\n    mapping(uint256 => string) private _tokenURIs;\r\n\r\n    constructor() ERC721(\"MyNFT\", \"MNFT\") {\r\n        admin = msg.sender;\r\n    }\r\n\r\n    function _baseURI() internal view virtual override returns (string memory) {\r\n        return \"https://api.example.com/metadata/\";\r\n    }\r\n\r\n    function safeMint(address to, string memory nftURi) public {\r\n        uint256 newTokenId = nextTokenId;\r\n        _safeMint(to, newTokenId);\r\n        _setTokenURI(newTokenId, nftURi);\r\n        nextTokenId++;\r\n    }\r\n\r\n    function tokenURI(\r\n        uint256 tokenId\r\n    ) public view override returns (string memory) {\r\n        return _tokenURIs[tokenId];\r\n    }\r\n\r\n    function _setTokenURI(\r\n        uint256 tokenId,\r\n        string memory _tokenURI\r\n    ) internal virtual {\r\n        _tokenURIs[tokenId] = _tokenURI;\r\n    }\r\n}\r\n",
  "sourcePath": "C:\\Users\\pc\\Desktop\\minor project\\truffy-crypto-dapp\\contracts\\MintNft.sol",
  "compiler": {
    "name": "solc",
    "version": "0.8.28+commit.7893614a.Emscripten.clang"
  },
  "schemaVersion": "3.4.16",
  "updatedAt": "2024-11-21T07:45:53.137Z",
  "devdoc": {
    "errors": {
      "ERC721EnumerableForbiddenBatchMint()": [
        {
          "details": "Batch mint is not allowed."
        }
      ],
      "ERC721IncorrectOwner(address,uint256,address)": [
        {
          "details": "Indicates an error related to the ownership over a particular token. Used in transfers.",
          "params": {
            "owner": "Address of the current owner of a token.",
            "sender": "Address whose tokens are being transferred.",
            "tokenId": "Identifier number of a token."
          }
        }
      ],
      "ERC721InsufficientApproval(address,uint256)": [
        {
          "details": "Indicates a failure with the `operator`s approval. Used in transfers.",
          "params": {
            "operator": "Address that may be allowed to operate on tokens without being their owner.",
            "tokenId": "Identifier number of a token."
          }
        }
      ],
      "ERC721InvalidApprover(address)": [
        {
          "details": "Indicates a failure with the `approver` of a token to be approved. Used in approvals.",
          "params": {
            "approver": "Address initiating an approval operation."
          }
        }
      ],
      "ERC721InvalidOperator(address)": [
        {
          "details": "Indicates a failure with the `operator` to be approved. Used in approvals.",
          "params": {
            "operator": "Address that may be allowed to operate on tokens without being their owner."
          }
        }
      ],
      "ERC721InvalidOwner(address)": [
        {
          "details": "Indicates that an address can't be an owner. For example, `address(0)` is a forbidden owner in ERC-20. Used in balance queries.",
          "params": {
            "owner": "Address of the current owner of a token."
          }
        }
      ],
      "ERC721InvalidReceiver(address)": [
        {
          "details": "Indicates a failure with the token `receiver`. Used in transfers.",
          "params": {
            "receiver": "Address to which tokens are being transferred."
          }
        }
      ],
      "ERC721InvalidSender(address)": [
        {
          "details": "Indicates a failure with the token `sender`. Used in transfers.",
          "params": {
            "sender": "Address whose tokens are being transferred."
          }
        }
      ],
      "ERC721NonexistentToken(uint256)": [
        {
          "details": "Indicates a `tokenId` whose `owner` is the zero address.",
          "params": {
            "tokenId": "Identifier number of a token."
          }
        }
      ],
      "ERC721OutOfBoundsIndex(address,uint256)": [
        {
          "details": "An `owner`'s token query was out of bounds for `index`. NOTE: The owner being `address(0)` indicates a global out of bounds index."
        }
      ]
    },
    "events": {
      "Approval(address,address,uint256)": {
        "details": "Emitted when `owner` enables `approved` to manage the `tokenId` token."
      },
      "ApprovalForAll(address,address,bool)": {
        "details": "Emitted when `owner` enables or disables (`approved`) `operator` to manage all of its assets."
      },
      "Transfer(address,address,uint256)": {
        "details": "Emitted when `tokenId` token is transferred from `from` to `to`."
      }
    },
    "kind": "dev",
    "methods": {
      "approve(address,uint256)": {
        "details": "See {IERC721-approve}."
      },
      "balanceOf(address)": {
        "details": "See {IERC721-balanceOf}."
      },
      "getApproved(uint256)": {
        "details": "See {IERC721-getApproved}."
      },
      "isApprovedForAll(address,address)": {
        "details": "See {IERC721-isApprovedForAll}."
      },
      "name()": {
        "details": "See {IERC721Metadata-name}."
      },
      "ownerOf(uint256)": {
        "details": "See {IERC721-ownerOf}."
      },
      "safeTransferFrom(address,address,uint256)": {
        "details": "See {IERC721-safeTransferFrom}."
      },
      "safeTransferFrom(address,address,uint256,bytes)": {
        "details": "See {IERC721-safeTransferFrom}."
      },
      "setApprovalForAll(address,bool)": {
        "details": "See {IERC721-setApprovalForAll}."
      },
      "supportsInterface(bytes4)": {
        "details": "See {IERC165-supportsInterface}."
      },
      "symbol()": {
        "details": "See {IERC721Metadata-symbol}."
      },
      "tokenByIndex(uint256)": {
        "details": "See {IERC721Enumerable-tokenByIndex}."
      },
      "tokenOfOwnerByIndex(address,uint256)": {
        "details": "See {IERC721Enumerable-tokenOfOwnerByIndex}."
      },
      "tokenURI(uint256)": {
        "details": "See {IERC721Metadata-tokenURI}."
      },
      "totalSupply()": {
        "details": "See {IERC721Enumerable-totalSupply}."
      },
      "transferFrom(address,address,uint256)": {
        "details": "See {IERC721-transferFrom}."
      }
    },
    "version": 1
  },
  "userdoc": {
    "kind": "user",
    "methods": {},
    "version": 1
  }
}