{
  "contractName": "MyNFT",
  "abi": [
    {
      "inputs": [],
      "stateMutability": "nonpayable",
      "type": "constructor"
    },
    {
      "inputs": [
        {
          "internalType": "address",
          "name": "sender",
          "type": "address"
        },
        {
          "internalType": "uint256",
          "name": "tokenId",
          "type": "uint256"
        },
        {
          "internalType": "address",
          "name": "owner",
          "type": "address"
        }
      ],
      "name": "ERC721IncorrectOwner",
      "type": "error"
    },
    {
      "inputs": [
        {
          "internalType": "address",
          "name": "operator",
          "type": "address"
        },
        {
          "internalType": "uint256",
          "name": "tokenId",
          "type": "uint256"
        }
      ],
      "name": "ERC721InsufficientApproval",
      "type": "error"
    },
    {
      "inputs": [
        {
          "internalType": "address",
          "name": "approver",
          "type": "address"
        }
      ],
      "name": "ERC721InvalidApprover",
      "type": "error"
    },
    {
      "inputs": [
        {
          "internalType": "address",
          "name": "operator",
          "type": "address"
        }
      ],
      "name": "ERC721InvalidOperator",
      "type": "error"
    },
    {
      "inputs": [
        {
          "internalType": "address",
          "name": "owner",
          "type": "address"
        }
      ],
      "name": "ERC721InvalidOwner",
      "type": "error"
    },
    {
      "inputs": [
        {
          "internalType": "address",
          "name": "receiver",
          "type": "address"
        }
      ],
      "name": "ERC721InvalidReceiver",
      "type": "error"
    },
    {
      "inputs": [
        {
          "internalType": "address",
          "name": "sender",
          "type": "address"
        }
      ],
      "name": "ERC721InvalidSender",
      "type": "error"
    },
    {
      "inputs": [
        {
          "internalType": "uint256",
          "name": "tokenId",
          "type": "uint256"
        }
      ],
      "name": "ERC721NonexistentToken",
      "type": "error"
    },
    {
      "anonymous": false,
      "inputs": [
        {
          "indexed": true,
          "internalType": "address",
          "name": "owner",
          "type": "address"
        },
        {
          "indexed": true,
          "internalType": "address",
          "name": "approved",
          "type": "address"
        },
        {
          "indexed": true,
          "internalType": "uint256",
          "name": "tokenId",
          "type": "uint256"
        }
      ],
      "name": "Approval",
      "type": "event"
    },
    {
      "anonymous": false,
      "inputs": [
        {
          "indexed": true,
          "internalType": "address",
          "name": "owner",
          "type": "address"
        },
        {
          "indexed": true,
          "internalType": "address",
          "name": "operator",
          "type": "address"
        },
        {
          "indexed": false,
          "internalType": "bool",
          "name": "approved",
          "type": "bool"
        }
      ],
      "name": "ApprovalForAll",
      "type": "event"
    },
    {
      "anonymous": false,
      "inputs": [
        {
          "indexed": true,
          "internalType": "address",
          "name": "from",
          "type": "address"
        },
        {
          "indexed": true,
          "internalType": "address",
          "name": "to",
          "type": "address"
        },
        {
          "indexed": true,
          "internalType": "uint256",
          "name": "tokenId",
          "type": "uint256"
        }
      ],
      "name": "Transfer",
      "type": "event"
    },
    {
      "inputs": [
        {
          "internalType": "address",
          "name": "to",
          "type": "address"
        },
        {
          "internalType": "uint256",
          "name": "tokenId",
          "type": "uint256"
        }
      ],
      "name": "approve",
      "outputs": [],
      "stateMutability": "nonpayable",
      "type": "function"
    },
    {
      "inputs": [
        {
          "internalType": "address",
          "name": "owner",
          "type": "address"
        }
      ],
      "name": "balanceOf",
      "outputs": [
        {
          "internalType": "uint256",
          "name": "",
          "type": "uint256"
        }
      ],
      "stateMutability": "view",
      "type": "function"
    },
    {
      "inputs": [
        {
          "internalType": "uint256",
          "name": "tokenId",
          "type": "uint256"
        }
      ],
      "name": "getApproved",
      "outputs": [
        {
          "internalType": "address",
          "name": "",
          "type": "address"
        }
      ],
      "stateMutability": "view",
      "type": "function"
    },
    {
      "inputs": [
        {
          "internalType": "address",
          "name": "owner",
          "type": "address"
        },
        {
          "internalType": "address",
          "name": "operator",
          "type": "address"
        }
      ],
      "name": "isApprovedForAll",
      "outputs": [
        {
          "internalType": "bool",
          "name": "",
          "type": "bool"
        }
      ],
      "stateMutability": "view",
      "type": "function"
    },
    {
      "inputs": [],
      "name": "name",
      "outputs": [
        {
          "internalType": "string",
          "name": "",
          "type": "string"
        }
      ],
      "stateMutability": "view",
      "type": "function"
    },
    {
      "inputs": [
        {
          "internalType": "uint256",
          "name": "tokenId",
          "type": "uint256"
        }
      ],
      "name": "ownerOf",
      "outputs": [
        {
          "internalType": "address",
          "name": "",
          "type": "address"
        }
      ],
      "stateMutability": "view",
      "type": "function"
    },
    {
      "inputs": [
        {
          "internalType": "address",
          "name": "from",
          "type": "address"
        },
        {
          "internalType": "address",
          "name": "to",
          "type": "address"
        },
        {
          "internalType": "uint256",
          "name": "tokenId",
          "type": "uint256"
        }
      ],
      "name": "safeTransferFrom",
      "outputs": [],
      "stateMutability": "nonpayable",
      "type": "function"
    },
    {
      "inputs": [
        {
          "internalType": "address",
          "name": "from",
          "type": "address"
        },
        {
          "internalType": "address",
          "name": "to",
          "type": "address"
        },
        {
          "internalType": "uint256",
          "name": "tokenId",
          "type": "uint256"
        },
        {
          "internalType": "bytes",
          "name": "data",
          "type": "bytes"
        }
      ],
      "name": "safeTransferFrom",
      "outputs": [],
      "stateMutability": "nonpayable",
      "type": "function"
    },
    {
      "inputs": [
        {
          "internalType": "address",
          "name": "operator",
          "type": "address"
        },
        {
          "internalType": "bool",
          "name": "approved",
          "type": "bool"
        }
      ],
      "name": "setApprovalForAll",
      "outputs": [],
      "stateMutability": "nonpayable",
      "type": "function"
    },
    {
      "inputs": [
        {
          "internalType": "bytes4",
          "name": "interfaceId",
          "type": "bytes4"
        }
      ],
      "name": "supportsInterface",
      "outputs": [
        {
          "internalType": "bool",
          "name": "",
          "type": "bool"
        }
      ],
      "stateMutability": "view",
      "type": "function"
    },
    {
      "inputs": [],
      "name": "symbol",
      "outputs": [
        {
          "internalType": "string",
          "name": "",
          "type": "string"
        }
      ],
      "stateMutability": "view",
      "type": "function"
    },
    {
      "inputs": [
        {
          "internalType": "uint256",
          "name": "tokenId",
          "type": "uint256"
        }
      ],
      "name": "tokenURI",
      "outputs": [
        {
          "internalType": "string",
          "name": "",
          "type": "string"
        }
      ],
      "stateMutability": "view",
      "type": "function"
    },
    {
      "inputs": [
        {
          "internalType": "address",
          "name": "from",
          "type": "address"
        },
        {
          "internalType": "address",
          "name": "to",
          "type": "address"
        },
        {
          "internalType": "uint256",
          "name": "tokenId",
          "type": "uint256"
        }
      ],
      "name": "transferFrom",
      "outputs": [],
      "stateMutability": "nonpayable",
      "type": "function"
    },
    {
      "inputs": [
        {
          "internalType": "address",
          "name": "to",
          "type": "address"
        }
      ],
      "name": "safeMint",
      "outputs": [],
      "stateMutability": "nonpayable",
      "type": "function"
    }
  ],
  "bytecode": "0x608060405234801561001057600080fd5b5060405180604001604052806005815260200164135e53919560da1b815250604051806040016040528060048152602001631353919560e21b815250816000908161005b919061010f565b506001610068828261010f565b5050506101cd565b634e487b7160e01b600052604160045260246000fd5b600181811c9082168061009a57607f821691505b6020821081036100ba57634e487b7160e01b600052602260045260246000fd5b50919050565b601f82111561010a57806000526020600020601f840160051c810160208510156100e75750805b601f840160051c820191505b8181101561010757600081556001016100f3565b50505b505050565b81516001600160401b0381111561012857610128610070565b61013c816101368454610086565b846100c0565b6020601f82116001811461017057600083156101585750848201515b600019600385901b1c1916600184901b178455610107565b600084815260208120601f198516915b828110156101a05787850151825560209485019460019092019101610180565b50848210156101be5786840151600019600387901b60f8161c191681555b50505050600190811b01905550565b61102f806101dc6000396000f3fe608060405234801561001057600080fd5b50600436106100ea5760003560e01c80636352211e1161008c578063a22cb46511610066578063a22cb465146101e1578063b88d4fde146101f4578063c87b56dd14610207578063e985e9c51461021a57600080fd5b80636352211e146101a557806370a08231146101b857806395d89b41146101d957600080fd5b8063095ea7b3116100c8578063095ea7b31461015757806323b872dd1461016c57806340d097c31461017f57806342842e0e1461019257600080fd5b806301ffc9a7146100ef57806306fdde0314610117578063081812fc1461012c575b600080fd5b6101026100fd366004610c4e565b61022d565b60405190151581526020015b60405180910390f35b61011f61027f565b60405161010e9190610cbb565b61013f61013a366004610cce565b610311565b6040516001600160a01b03909116815260200161010e565b61016a610165366004610d03565b61033a565b005b61016a61017a366004610d2d565b610349565b61016a61018d366004610d6a565b6103d9565b61016a6101a0366004610d2d565b6103ff565b61013f6101b3366004610cce565b61041f565b6101cb6101c6366004610d6a565b61042a565b60405190815260200161010e565b61011f610472565b61016a6101ef366004610d85565b610481565b61016a610202366004610dd7565b61048c565b61011f610215366004610cce565b6104a4565b610102610228366004610ebb565b61050c565b60006001600160e01b031982166380ac58cd60e01b148061025e57506001600160e01b03198216635b5e139f60e01b145b8061027957506301ffc9a760e01b6001600160e01b03198316145b92915050565b60606000805461028e90610eee565b80601f01602080910402602001604051908101604052809291908181526020018280546102ba90610eee565b80156103075780601f106102dc57610100808354040283529160200191610307565b820191906000526020600020905b8154815290600101906020018083116102ea57829003601f168201915b5050505050905090565b600061031c8261053a565b506000828152600460205260409020546001600160a01b0316610279565b610345828233610573565b5050565b6001600160a01b03821661037857604051633250574960e11b8152600060048201526024015b60405180910390fd5b6000610385838333610580565b9050836001600160a01b0316816001600160a01b0316146103d3576040516364283d7b60e01b81526001600160a01b038086166004830152602482018490528216604482015260640161036f565b50505050565b6006546103e68282610679565b600680549060006103f683610f28565b91905055505050565b61041a8383836040518060200160405280600081525061048c565b505050565b60006102798261053a565b60006001600160a01b038216610456576040516322718ad960e21b81526000600482015260240161036f565b506001600160a01b031660009081526003602052604090205490565b60606001805461028e90610eee565b610345338383610693565b610497848484610349565b6103d33385858585610732565b60606104af8261053a565b5060006104ba61085d565b905060008151116104da5760405180602001604052806000815250610505565b806104e48461087d565b6040516020016104f5929190610f4f565b6040516020818303038152906040525b9392505050565b6001600160a01b03918216600090815260056020908152604080832093909416825291909152205460ff1690565b6000818152600260205260408120546001600160a01b03168061027957604051637e27328960e01b81526004810184905260240161036f565b61041a8383836001610910565b6000828152600260205260408120546001600160a01b03908116908316156105ad576105ad818486610a16565b6001600160a01b038116156105eb576105ca600085600080610910565b6001600160a01b038116600090815260036020526040902080546000190190555b6001600160a01b0385161561061a576001600160a01b0385166000908152600360205260409020805460010190555b60008481526002602052604080822080546001600160a01b0319166001600160a01b0389811691821790925591518793918516917fddf252ad1be2c89b69c2b068fc378daa952ba7f163c4a11628f55a4df523b3ef91a4949350505050565b610345828260405180602001604052806000815250610a7a565b6001600160a01b0382166106c557604051630b61174360e31b81526001600160a01b038316600482015260240161036f565b6001600160a01b03838116600081815260056020908152604080832094871680845294825291829020805460ff191686151590811790915591519182527f17307eab39ab6107e8899845ad3d59bd9653f200f220920489ca2b5937696c31910160405180910390a3505050565b6001600160a01b0383163b1561085657604051630a85bd0160e11b81526001600160a01b0384169063150b7a0290610774908890889087908790600401610f7e565b6020604051808303816000875af19250505080156107af575060408051601f3d908101601f191682019092526107ac91810190610fbb565b60015b610818573d8080156107dd576040519150601f19603f3d011682016040523d82523d6000602084013e6107e2565b606091505b50805160000361081057604051633250574960e11b81526001600160a01b038516600482015260240161036f565b805181602001fd5b6001600160e01b03198116630a85bd0160e11b1461085457604051633250574960e11b81526001600160a01b038516600482015260240161036f565b505b5050505050565b6060604051806060016040528060218152602001610fd960219139905090565b6060600061088a83610a92565b600101905060008167ffffffffffffffff8111156108aa576108aa610dc1565b6040519080825280601f01601f1916602001820160405280156108d4576020820181803683370190505b5090508181016020015b600019016f181899199a1a9b1b9c1cb0b131b232b360811b600a86061a8153600a85049450846108de57509392505050565b808061092457506001600160a01b03821615155b156109e65760006109348461053a565b90506001600160a01b038316158015906109605750826001600160a01b0316816001600160a01b031614155b80156109735750610971818461050c565b155b1561099c5760405163a9fbf51f60e01b81526001600160a01b038416600482015260240161036f565b81156109e45783856001600160a01b0316826001600160a01b03167f8c5be1e5ebec7d5bd14f71427d1e84f3dd0314c0f7b2291e5b200ac8c7c3b92560405160405180910390a45b505b5050600090815260046020526040902080546001600160a01b0319166001600160a01b0392909216919091179055565b610a21838383610b6a565b61041a576001600160a01b038316610a4f57604051637e27328960e01b81526004810182905260240161036f565b60405163177e802f60e01b81526001600160a01b03831660048201526024810182905260440161036f565b610a848383610bd0565b61041a336000858585610732565b60008072184f03e93ff9f4daa797ed6e38ed64bf6a1f0160401b8310610ad15772184f03e93ff9f4daa797ed6e38ed64bf6a1f0160401b830492506040015b6d04ee2d6d415b85acef81000000008310610afd576d04ee2d6d415b85acef8100000000830492506020015b662386f26fc100008310610b1b57662386f26fc10000830492506010015b6305f5e1008310610b33576305f5e100830492506008015b6127108310610b4757612710830492506004015b60648310610b59576064830492506002015b600a83106102795760010192915050565b60006001600160a01b03831615801590610bc85750826001600160a01b0316846001600160a01b03161480610ba45750610ba4848461050c565b80610bc857506000828152600460205260409020546001600160a01b038481169116145b949350505050565b6001600160a01b038216610bfa57604051633250574960e11b81526000600482015260240161036f565b6000610c0883836000610580565b90506001600160a01b0381161561041a576040516339e3563760e11b81526000600482015260240161036f565b6001600160e01b031981168114610c4b57600080fd5b50565b600060208284031215610c6057600080fd5b813561050581610c35565b60005b83811015610c86578181015183820152602001610c6e565b50506000910152565b60008151808452610ca7816020860160208601610c6b565b601f01601f19169290920160200192915050565b6020815260006105056020830184610c8f565b600060208284031215610ce057600080fd5b5035919050565b80356001600160a01b0381168114610cfe57600080fd5b919050565b60008060408385031215610d1657600080fd5b610d1f83610ce7565b946020939093013593505050565b600080600060608486031215610d4257600080fd5b610d4b84610ce7565b9250610d5960208501610ce7565b929592945050506040919091013590565b600060208284031215610d7c57600080fd5b61050582610ce7565b60008060408385031215610d9857600080fd5b610da183610ce7565b915060208301358015158114610db657600080fd5b809150509250929050565b634e487b7160e01b600052604160045260246000fd5b60008060008060808587031215610ded57600080fd5b610df685610ce7565b9350610e0460208601610ce7565b925060408501359150606085013567ffffffffffffffff811115610e2757600080fd5b8501601f81018713610e3857600080fd5b803567ffffffffffffffff811115610e5257610e52610dc1565b604051601f8201601f19908116603f0116810167ffffffffffffffff81118282101715610e8157610e81610dc1565b604052818152828201602001891015610e9957600080fd5b8160208401602083013760006020838301015280935050505092959194509250565b60008060408385031215610ece57600080fd5b610ed783610ce7565b9150610ee560208401610ce7565b90509250929050565b600181811c90821680610f0257607f821691505b602082108103610f2257634e487b7160e01b600052602260045260246000fd5b50919050565b600060018201610f4857634e487b7160e01b600052601160045260246000fd5b5060010190565b60008351610f61818460208801610c6b565b835190830190610f75818360208801610c6b565b01949350505050565b6001600160a01b0385811682528416602082015260408101839052608060608201819052600090610fb190830184610c8f565b9695505050505050565b600060208284031215610fcd57600080fd5b815161050581610c3556fe68747470733a2f2f6170692e6578616d706c652e636f6d2f6d657461646174612fa2646970667358221220d7f51268ba2f3f1d89507a42152cfa77197de4602221fb6637feccfa9c590ecb64736f6c634300081c0033",
  "immutableReferences": {},
  "source": "// SPDX-License-Identifier: UNLICENSED\r\npragma solidity ^0.8.28;\r\n\r\nimport \"@openzeppelin/contracts/token/ERC721/ERC721.sol\";\r\nimport \"@openzeppelin/contracts/access/Ownable.sol\"; // For onlyOwner modifier\r\n\r\ncontract MyNFT is ERC721 {\r\n    uint256 private _tokenIdCounter; // Declare a variable to manually increment token IDs\r\n\r\n    constructor() ERC721(\"MyNFT\", \"MNFT\") {}\r\n\r\n    // Function to mint a new token, incrementing the token ID manually\r\n    function safeMint(address to) public {\r\n        uint256 tokenId = _tokenIdCounter; // Get the current token ID\r\n        _safeMint(to, tokenId);\r\n        _tokenIdCounter++; // Increment the token ID manually\r\n    }\r\n\r\n    // Base URI for metadata\r\n    function _baseURI() internal view virtual override returns (string memory) {\r\n        return \"https://api.example.com/metadata/\";\r\n    }\r\n}\r\n",
  "sourcePath": "C:\\Users\\pc\\Desktop\\minor project\\truffy-crypto-dapp\\contracts\\MintNft.sol",
  "compiler": {
    "name": "solc",
    "version": "0.8.28+commit.7893614a.Emscripten.clang"
  },
  "schemaVersion": "3.4.16",
  "updatedAt": "2024-11-21T18:09:12.562Z",
  "devdoc": {
    "errors": {
      "ERC721IncorrectOwner(address,uint256,address)": [
        {
          "details": "Indicates an error related to the ownership over a particular token. Used in transfers.",
          "params": {
            "owner": "Address of the current owner of a token.",
            "sender": "Address whose tokens are being transferred.",
            "tokenId": "Identifier number of a token."
          }
        }
      ],
      "ERC721InsufficientApproval(address,uint256)": [
        {
          "details": "Indicates a failure with the `operator`s approval. Used in transfers.",
          "params": {
            "operator": "Address that may be allowed to operate on tokens without being their owner.",
            "tokenId": "Identifier number of a token."
          }
        }
      ],
      "ERC721InvalidApprover(address)": [
        {
          "details": "Indicates a failure with the `approver` of a token to be approved. Used in approvals.",
          "params": {
            "approver": "Address initiating an approval operation."
          }
        }
      ],
      "ERC721InvalidOperator(address)": [
        {
          "details": "Indicates a failure with the `operator` to be approved. Used in approvals.",
          "params": {
            "operator": "Address that may be allowed to operate on tokens without being their owner."
          }
        }
      ],
      "ERC721InvalidOwner(address)": [
        {
          "details": "Indicates that an address can't be an owner. For example, `address(0)` is a forbidden owner in ERC-20. Used in balance queries.",
          "params": {
            "owner": "Address of the current owner of a token."
          }
        }
      ],
      "ERC721InvalidReceiver(address)": [
        {
          "details": "Indicates a failure with the token `receiver`. Used in transfers.",
          "params": {
            "receiver": "Address to which tokens are being transferred."
          }
        }
      ],
      "ERC721InvalidSender(address)": [
        {
          "details": "Indicates a failure with the token `sender`. Used in transfers.",
          "params": {
            "sender": "Address whose tokens are being transferred."
          }
        }
      ],
      "ERC721NonexistentToken(uint256)": [
        {
          "details": "Indicates a `tokenId` whose `owner` is the zero address.",
          "params": {
            "tokenId": "Identifier number of a token."
          }
        }
      ]
    },
    "events": {
      "Approval(address,address,uint256)": {
        "details": "Emitted when `owner` enables `approved` to manage the `tokenId` token."
      },
      "ApprovalForAll(address,address,bool)": {
        "details": "Emitted when `owner` enables or disables (`approved`) `operator` to manage all of its assets."
      },
      "Transfer(address,address,uint256)": {
        "details": "Emitted when `tokenId` token is transferred from `from` to `to`."
      }
    },
    "kind": "dev",
    "methods": {
      "approve(address,uint256)": {
        "details": "See {IERC721-approve}."
      },
      "balanceOf(address)": {
        "details": "See {IERC721-balanceOf}."
      },
      "getApproved(uint256)": {
        "details": "See {IERC721-getApproved}."
      },
      "isApprovedForAll(address,address)": {
        "details": "See {IERC721-isApprovedForAll}."
      },
      "name()": {
        "details": "See {IERC721Metadata-name}."
      },
      "ownerOf(uint256)": {
        "details": "See {IERC721-ownerOf}."
      },
      "safeTransferFrom(address,address,uint256)": {
        "details": "See {IERC721-safeTransferFrom}."
      },
      "safeTransferFrom(address,address,uint256,bytes)": {
        "details": "See {IERC721-safeTransferFrom}."
      },
      "setApprovalForAll(address,bool)": {
        "details": "See {IERC721-setApprovalForAll}."
      },
      "supportsInterface(bytes4)": {
        "details": "See {IERC165-supportsInterface}."
      },
      "symbol()": {
        "details": "See {IERC721Metadata-symbol}."
      },
      "tokenURI(uint256)": {
        "details": "See {IERC721Metadata-tokenURI}."
      },
      "transferFrom(address,address,uint256)": {
        "details": "See {IERC721-transferFrom}."
      }
    },
    "version": 1
  },
  "userdoc": {
    "kind": "user",
    "methods": {},
    "version": 1
  }
}