{
  "contractName": "Tickets",
  "abi": [
    {
      "inputs": [],
      "stateMutability": "nonpayable",
      "type": "constructor"
    },
    {
      "inputs": [],
      "name": "owner",
      "outputs": [
        {
          "internalType": "address",
          "name": "",
          "type": "address"
        }
      ],
      "stateMutability": "view",
      "type": "function"
    },
    {
      "inputs": [
        {
          "internalType": "uint256",
          "name": "",
          "type": "uint256"
        }
      ],
      "name": "tickets",
      "outputs": [
        {
          "internalType": "uint256",
          "name": "price",
          "type": "uint256"
        },
        {
          "internalType": "address",
          "name": "owner",
          "type": "address"
        }
      ],
      "stateMutability": "view",
      "type": "function"
    },
    {
      "inputs": [
        {
          "internalType": "uint256",
          "name": "_index",
          "type": "uint256"
        }
      ],
      "name": "buyTicket",
      "outputs": [],
      "stateMutability": "payable",
      "type": "function"
    }
  ],
  "bytecode": "0x6080604052600080546001600160a01b03191633179055348015602157600080fd5b5060005b600a81101560945767016345785d8a0000600182600a811060465760466099565b60020201556000600182600a8110605d57605d6099565b6002020160010160006101000a8154816001600160a01b0302191690836001600160a01b0316021790555080806001019150506025565b5060af565b634e487b7160e01b600052603260045260246000fd5b610205806100be6000396000f3fe6080604052600436106100345760003560e01c806350b447121461003957806367dd74ca1461007b5780638da5cb5b14610090575b600080fd5b34801561004557600080fd5b506100596100543660046101a0565b6100c8565b604080519283526001600160a01b039091166020830152015b60405180910390f35b61008e6100893660046101a0565b6100f3565b005b34801561009c57600080fd5b506000546100b0906001600160a01b031681565b6040516001600160a01b039091168152602001610072565b600181600a81106100d857600080fd5b6002020180546001909101549091506001600160a01b031682565b600a81108015610101575060015b61010a57600080fd5b6000600182600a811061011f5761011f6101b9565b60020201600101546001600160a01b03161461013a57600080fd5b600181600a811061014d5761014d6101b9565b600202015434101561015e57600080fd5b33600182600a8110610172576101726101b9565b6002020160010160006101000a8154816001600160a01b0302191690836001600160a01b0316021790555050565b6000602082840312156101b257600080fd5b5035919050565b634e487b7160e01b600052603260045260246000fdfea26469706673582212203115b46a6eeea2f9f23274d5bb69155c95356eb9862bf75e1e2af7175dd817af64736f6c634300081c0033",
  "immutableReferences": {},
  "source": "// SPDX-License-Identifier: UNLICENSED\r\n\r\npragma solidity ^0.8.28;\r\n\r\nuint256 constant TOTAL_TICKETS = 10;\r\n\r\ncontract Tickets {\r\n    address public owner = msg.sender;\r\n\r\n    struct Ticket {\r\n        uint256 price;\r\n        address owner;\r\n    }\r\n\r\n    Ticket[TOTAL_TICKETS] public tickets;\r\n\r\n    constructor() {\r\n        for (uint256 i = 0; i < TOTAL_TICKETS; i++) {\r\n            tickets[i].price = 1e17;\r\n            tickets[i].owner = address(0x0);\r\n        }\r\n    }\r\n\r\n    function buyTicket(uint256 _index) external payable {\r\n        require(_index < TOTAL_TICKETS && _index >= 0);\r\n        require(tickets[_index].owner == address(0x0));\r\n        require(msg.value >= tickets[_index].price);\r\n        tickets[_index].owner = msg.sender;\r\n    }\r\n}\r\n",
  "sourcePath": "C:\\Users\\pc\\Desktop\\minor project\\truffy-crypto-dapp\\contracts\\Tickets.sol",
  "compiler": {
    "name": "solc",
    "version": "0.8.28+commit.7893614a.Emscripten.clang"
  },
  "schemaVersion": "3.4.16",
  "updatedAt": "2024-11-21T07:45:53.150Z",
  "devdoc": {
    "kind": "dev",
    "methods": {},
    "version": 1
  },
  "userdoc": {
    "kind": "user",
    "methods": {},
    "version": 1
  }
}